{
     "contractName": "Adder",
     "abi": [
          {
               "inputs": [],
               "name": "result",
               "outputs": [
                    {
                         "internalType": "uint256",
                         "name": "",
                         "type": "uint256"
                    }
               ],
               "stateMutability": "view",
               "type": "function",
               "constant": true
          },
          {
               "inputs": [
                    {
                         "internalType": "uint256",
                         "name": "a",
                         "type": "uint256"
                    },
                    {
                         "internalType": "uint256",
                         "name": "b",
                         "type": "uint256"
                    }
               ],
               "name": "add",
               "outputs": [],
               "stateMutability": "nonpayable",
               "type": "function"
          }
     ],
     "bytecode": "0x608060405234801561001057600080fd5b506101e8806100206000396000f3fe608060405234801561001057600080fd5b50600436106100365760003560e01c8063653721471461003b578063771602f714610059575b600080fd5b610043610075565b60405161005091906100f1565b60405180910390f35b610073600480360381019061006e91906100a6565b61007b565b005b60005481565b8082610087919061010c565b6000819055505050565b6000813590506100a08161019b565b92915050565b600080604083850312156100b957600080fd5b60006100c785828601610091565b92505060206100d885828601610091565b9150509250929050565b6100eb81610162565b82525050565b600060208201905061010660008301846100e2565b92915050565b600061011782610162565b915061012283610162565b9250827fffffffffffffffffffffffffffffffffffffffffffffffffffffffffffffffff038211156101575761015661016c565b5b828201905092915050565b6000819050919050565b7f4e487b7100000000000000000000000000000000000000000000000000000000600052601160045260246000fd5b6101a481610162565b81146101af57600080fd5b5056fea26469706673582212200677eecc7f6dbfc9784b64a186d25b1f373e31b7f8a98b9341d190b79c203d7164736f6c63430008000033",
     "immutableReferences": {},
     "source": "// SPDX-License-Identifier: MIT\r\npragma solidity ^0.8.0;\r\n\r\ncontract Adder {\r\n    uint256 public result;\r\n\r\n    // Function to add two numbers\r\n    function add(uint256 a, uint256 b) public {\r\n        result = a + b;\r\n    }\r\n}\r\n",
     "sourcePath": "C:\\Users\\Emmy Gretta\\Desktop\\Desktop\\Master\\Solidity\\adder_dapp\\contracts\\Addition.sol",
     "compiler": {
          "name": "solc",
          "version": "0.8.0+commit.c7dfd78e.Emscripten.clang"
     },
     "schemaVersion": "3.4.16",
     "updatedAt": "2024-05-20T13:33:06.090Z",
     "networkType": "ethereum",
     "devdoc": {
          "kind": "dev",
          "methods": {},
          "version": 1
     },
     "userdoc": {
          "kind": "user",
          "methods": {},
          "version": 1
     }
}